{
  "contractName": "Storage",
  "abi": [
    {
      "constant": true,
      "inputs": [
        {
          "name": "",
          "type": "uint256"
        }
      ],
      "name": "allProducts",
      "outputs": [
        {
          "name": "name",
          "type": "string"
        },
        {
          "name": "price",
          "type": "uint256"
        },
        {
          "name": "quantity",
          "type": "uint256"
        },
        {
          "name": "owner",
          "type": "address"
        },
        {
          "name": "purchased",
          "type": "bool"
        }
      ],
      "payable": false,
      "stateMutability": "view",
      "type": "function",
      "signature": "0xcfaaef56"
    },
    {
      "constant": true,
      "inputs": [
        {
          "name": "",
          "type": "address"
        },
        {
          "name": "",
          "type": "uint256"
        }
      ],
      "name": "products",
      "outputs": [
        {
          "name": "name",
          "type": "string"
        },
        {
          "name": "price",
          "type": "uint256"
        },
        {
          "name": "quantity",
          "type": "uint256"
        },
        {
          "name": "owner",
          "type": "address"
        },
        {
          "name": "purchased",
          "type": "bool"
        }
      ],
      "payable": false,
      "stateMutability": "view",
      "type": "function",
      "signature": "0xfc640949"
    },
    {
      "constant": false,
      "inputs": [
        {
          "name": "name",
          "type": "string"
        },
        {
          "name": "price",
          "type": "uint256"
        },
        {
          "name": "quantity",
          "type": "uint256"
        }
      ],
      "name": "addProduct",
      "outputs": [],
      "payable": false,
      "stateMutability": "nonpayable",
      "type": "function",
      "signature": "0x125b0b34"
    },
    {
      "constant": true,
      "inputs": [
        {
          "name": "productOwner",
          "type": "address"
        },
        {
          "name": "arrayPosition",
          "type": "uint256"
        }
      ],
      "name": "getProductByOwner",
      "outputs": [
        {
          "components": [
            {
              "name": "name",
              "type": "string"
            },
            {
              "name": "price",
              "type": "uint256"
            },
            {
              "name": "quantity",
              "type": "uint256"
            },
            {
              "name": "owner",
              "type": "address"
            },
            {
              "name": "purchased",
              "type": "bool"
            }
          ],
          "name": "",
          "type": "tuple"
        }
      ],
      "payable": false,
      "stateMutability": "view",
      "type": "function",
      "signature": "0x40faa28a"
    },
    {
      "constant": true,
      "inputs": [
        {
          "name": "productOwner",
          "type": "address"
        },
        {
          "name": "arrayPosition",
          "type": "uint256"
        }
      ],
      "name": "getProductPriceAndQuantityByOwner",
      "outputs": [
        {
          "name": "",
          "type": "uint256"
        },
        {
          "name": "",
          "type": "uint256"
        }
      ],
      "payable": false,
      "stateMutability": "view",
      "type": "function",
      "signature": "0x46d6eb04"
    },
    {
      "constant": true,
      "inputs": [
        {
          "name": "originalOwner",
          "type": "address"
        },
        {
          "name": "arrayPosition",
          "type": "uint256"
        },
        {
          "name": "newOwner",
          "type": "address"
        }
      ],
      "name": "transferProductOwnership",
      "outputs": [],
      "payable": false,
      "stateMutability": "view",
      "type": "function",
      "signature": "0x4d3516f3"
    }
  ],
  "bytecode": "0x608060405234801561001057600080fd5b50611180806100206000396000f3fe608060405260043610610078576000357c0100000000000000000000000000000000000000000000000000000000900463ffffffff168063125b0b341461007d57806340faa28a146100a657806346d6eb04146100e35780634d3516f314610121578063cfaaef561461014a578063fc6409491461018b575b600080fd5b34801561008957600080fd5b506100a4600480360361009f9190810190610e1d565b6101cc565b005b3480156100b257600080fd5b506100cd60048036036100c89190810190610d92565b6103fa565b6040516100da9190610fe0565b60405180910390f35b3480156100ef57600080fd5b5061010a60048036036101059190810190610d92565b610596565b604051610118929190611002565b60405180910390f35b34801561012d57600080fd5b5061014860048036036101439190810190610dce565b610745565b005b34801561015657600080fd5b50610171600480360361016c9190810190610e84565b610935565b604051610182959493929190610f86565b60405180910390f35b34801561019757600080fd5b506101b260048036036101ad9190810190610d92565b610a3f565b6040516101c3959493929190610f86565b60405180910390f35b60003390506101d9610c27565b60a0604051908101604052808681526020018581526020018481526020018373ffffffffffffffffffffffffffffffffffffffff16815260200160001515815250905061022581610b56565b60018190806001815401808255809150509060018203906000526020600020906004020160009091929091909150600082015181600001908051906020019061026f929190610c6f565b50602082015181600101556040820151816002015560608201518160030160006101000a81548173ffffffffffffffffffffffffffffffffffffffff021916908373ffffffffffffffffffffffffffffffffffffffff16021790555060808201518160030160146101000a81548160ff0219169083151502179055505050506000808373ffffffffffffffffffffffffffffffffffffffff1673ffffffffffffffffffffffffffffffffffffffff16815260200190815260200160002081908060018154018082558091505090600182039060005260206000209060040201600090919290919091506000820151816000019080519060200190610374929190610c6f565b50602082015181600101556040820151816002015560608201518160030160006101000a81548173ffffffffffffffffffffffffffffffffffffffff021916908373ffffffffffffffffffffffffffffffffffffffff16021790555060808201518160030160146101000a81548160ff0219169083151502179055505050505050505050565b610402610c27565b6000808473ffffffffffffffffffffffffffffffffffffffff1673ffffffffffffffffffffffffffffffffffffffff1681526020019081526020016000208281548110151561044d57fe5b906000526020600020906004020160a06040519081016040529081600082018054600181600116156101000203166002900480601f0160208091040260200160405190810160405280929190818152602001828054600181600116156101000203166002900480156105005780601f106104d557610100808354040283529160200191610500565b820191906000526020600020905b8154815290600101906020018083116104e357829003601f168201915b5050505050815260200160018201548152602001600282015481526020016003820160009054906101000a900473ffffffffffffffffffffffffffffffffffffffff1673ffffffffffffffffffffffffffffffffffffffff1673ffffffffffffffffffffffffffffffffffffffff1681526020016003820160149054906101000a900460ff161515151581525050905092915050565b6000806105a1610c27565b6000808673ffffffffffffffffffffffffffffffffffffffff1673ffffffffffffffffffffffffffffffffffffffff168152602001908152602001600020848154811015156105ec57fe5b906000526020600020906004020160a06040519081016040529081600082018054600181600116156101000203166002900480601f01602080910402602001604051908101604052809291908181526020018280546001816001161561010002031660029004801561069f5780601f106106745761010080835404028352916020019161069f565b820191906000526020600020905b81548152906001019060200180831161068257829003601f168201915b5050505050815260200160018201548152602001600282015481526020016003820160009054906101000a900473ffffffffffffffffffffffffffffffffffffffff1673ffffffffffffffffffffffffffffffffffffffff1673ffffffffffffffffffffffffffffffffffffffff1681526020016003820160149054906101000a900460ff16151515158152505090508060200151816040015192509250509250929050565b61074d610c27565b6000808573ffffffffffffffffffffffffffffffffffffffff1673ffffffffffffffffffffffffffffffffffffffff1681526020019081526020016000208381548110151561079857fe5b906000526020600020906004020160a06040519081016040529081600082018054600181600116156101000203166002900480601f01602080910402602001604051908101604052809291908181526020018280546001816001161561010002031660029004801561084b5780601f106108205761010080835404028352916020019161084b565b820191906000526020600020905b81548152906001019060200180831161082e57829003601f168201915b5050505050815260200160018201548152602001600282015481526020016003820160009054906101000a900473ffffffffffffffffffffffffffffffffffffffff1673ffffffffffffffffffffffffffffffffffffffff1673ffffffffffffffffffffffffffffffffffffffff1681526020016003820160149054906101000a900460ff161515151581525050905081816060019073ffffffffffffffffffffffffffffffffffffffff16908173ffffffffffffffffffffffffffffffffffffffff16815250506001816080019015159081151581525050600081604001818152505050505050565b60018181548110151561094457fe5b9060005260206000209060040201600091509050806000018054600181600116156101000203166002900480601f0160208091040260200160405190810160405280929190818152602001828054600181600116156101000203166002900480156109f05780601f106109c5576101008083540402835291602001916109f0565b820191906000526020600020905b8154815290600101906020018083116109d357829003601f168201915b5050505050908060010154908060020154908060030160009054906101000a900473ffffffffffffffffffffffffffffffffffffffff16908060030160149054906101000a900460ff16905085565b600060205281600052604060002081815481101515610a5a57fe5b906000526020600020906004020160009150915050806000018054600181600116156101000203166002900480601f016020809104026020016040519081016040528092919081815260200182805460018160011615610100020316600290048015610b075780601f10610adc57610100808354040283529160200191610b07565b820191906000526020600020905b815481529060010190602001808311610aea57829003601f168201915b5050505050908060010154908060020154908060030160009054906101000a900473ffffffffffffffffffffffffffffffffffffffff16908060030160149054906101000a900460ff16905085565b6000816000015151111515610b6a57600080fd5b600073ffffffffffffffffffffffffffffffffffffffff16816060015173ffffffffffffffffffffffffffffffffffffffff1614158015610bdc5750600073ffffffffffffffffffffffffffffffffffffffff16816060015173ffffffffffffffffffffffffffffffffffffffff1614155b1515610be757600080fd5b60008160200151111515610bfa57600080fd5b60008160400151111515610c0d57600080fd5b6000151581608001511515141515610c2457600080fd5b50565b60a060405190810160405280606081526020016000815260200160008152602001600073ffffffffffffffffffffffffffffffffffffffff1681526020016000151581525090565b828054600181600116156101000203166002900490600052602060002090601f016020900481019282601f10610cb057805160ff1916838001178555610cde565b82800160010185558215610cde579182015b82811115610cdd578251825591602001919060010190610cc2565b5b509050610ceb9190610cef565b5090565b610d1191905b80821115610d0d576000816000905550600101610cf5565b5090565b90565b6000610d2082356110d7565b905092915050565b600082601f8301121515610d3b57600080fd5b8135610d4e610d4982611058565b61102b565b91508082526020830160208301858383011115610d6a57600080fd5b610d758382846110f3565b50505092915050565b6000610d8a82356110e9565b905092915050565b60008060408385031215610da557600080fd5b6000610db385828601610d14565b9250506020610dc485828601610d7e565b9150509250929050565b600080600060608486031215610de357600080fd5b6000610df186828701610d14565b9350506020610e0286828701610d7e565b9250506040610e1386828701610d14565b9150509250925092565b600080600060608486031215610e3257600080fd5b600084013567ffffffffffffffff811115610e4c57600080fd5b610e5886828701610d28565b9350506020610e6986828701610d7e565b9250506040610e7a86828701610d7e565b9150509250925092565b600060208284031215610e9657600080fd5b6000610ea484828501610d7e565b91505092915050565b610eb68161108f565b82525050565b610ec5816110a1565b82525050565b6000610ed682611084565b808452610eea816020860160208601611102565b610ef381611135565b602085010191505092915050565b600060a0830160008301518482036000860152610f1e8282610ecb565b9150506020830151610f336020860182610f77565b506040830151610f466040860182610f77565b506060830151610f596060860182610ead565b506080830151610f6c6080860182610ebc565b508091505092915050565b610f80816110cd565b82525050565b600060a0820190508181036000830152610fa08188610ecb565b9050610faf6020830187610f77565b610fbc6040830186610f77565b610fc96060830185610ead565b610fd66080830184610ebc565b9695505050505050565b60006020820190508181036000830152610ffa8184610f01565b905092915050565b60006040820190506110176000830185610f77565b6110246020830184610f77565b9392505050565b6000604051905081810181811067ffffffffffffffff8211171561104e57600080fd5b8060405250919050565b600067ffffffffffffffff82111561106f57600080fd5b601f19601f8301169050602081019050919050565b600081519050919050565b600061109a826110ad565b9050919050565b60008115159050919050565b600073ffffffffffffffffffffffffffffffffffffffff82169050919050565b6000819050919050565b60006110e2826110ad565b9050919050565b6000819050919050565b82818337600083830152505050565b60005b83811015611120578082015181840152602081019050611105565b8381111561112f576000848401525b50505050565b6000601f19601f830116905091905056fea265627a7a7230582081cacc1acfe8cbb1b087db9747447df25f32c6c65eaf490959a21487a3b7f1056c6578706572696d656e74616cf50037",
  "source": "pragma solidity >=0.4.17 <0.9.0;\npragma experimental ABIEncoderV2;\n\ncontract Storage {\n    struct Product {\n        string name;\n        uint price;\n        uint quantity;\n        address owner;\n        bool purchased;\n    }\n    mapping(address => Product[]) public products;\n    Product[] public allProducts;\n\n    function addProduct(string memory name, uint price, uint quantity) public {\n        address owner = msg.sender;\n        Product memory productToAdd = Product(name, price, quantity, owner, false);\n        validateProduct(productToAdd);\n        allProducts.push(productToAdd);\n        products[owner].push(productToAdd);\n    }\n\n    function getProductByOwner(address productOwner, uint arrayPosition) public view returns(Product memory){\n        return products[productOwner][arrayPosition];\n    }\n    function getProductPriceAndQuantityByOwner(address productOwner, uint arrayPosition) public view returns(uint, uint){\n        Product memory product = products[productOwner][arrayPosition];\n        return (product.price, product.quantity);\n    }\n\n    function transferProductOwnership(address originalOwner, uint arrayPosition, address newOwner) public view{\n        Product memory product = products[originalOwner][arrayPosition];\n\n        product.owner = newOwner;\n        product.purchased = true;\n        product.quantity = 0;\n    }\n\n    function validateProduct (Product memory product) private pure{\n        require(bytes(product.name).length > 0);\n        require(product.owner != address(0x0) && product.owner != address(0));\n        require(product.price > 0);\n        require(product.quantity > 0);\n        require(product.purchased == false);\n    }\n\n}",
  "sourcePath": "/Users/chasestruse/Documents/Developer/Blockchain/VideoGameMarketplace/contracts/Storage.sol",
  "compiler": {
    "name": "solc",
    "version": "0.5.0+commit.1d4f565a.Emscripten.clang"
  },
  "schemaVersion": "3.0.2",
  "updatedAt": "2022-01-11T20:25:53.387Z",
  "devdoc": {
    "methods": {}
  },
  "userdoc": {
    "methods": {}
  }
}