{
  "contractName": "Storage",
  "abi": [
    {
      "constant": true,
      "inputs": [
        {
          "name": "",
          "type": "uint256"
        }
      ],
      "name": "allProducts",
      "outputs": [
        {
          "name": "name",
          "type": "string"
        },
        {
          "name": "price",
          "type": "uint256"
        },
        {
          "name": "quantity",
          "type": "uint256"
        },
        {
          "name": "owner",
          "type": "address"
        },
        {
          "name": "purchased",
          "type": "bool"
        }
      ],
      "payable": false,
      "stateMutability": "view",
      "type": "function",
      "signature": "0xcfaaef56"
    },
    {
      "constant": true,
      "inputs": [
        {
          "name": "",
          "type": "address"
        },
        {
          "name": "",
          "type": "uint256"
        }
      ],
      "name": "products",
      "outputs": [
        {
          "name": "name",
          "type": "string"
        },
        {
          "name": "price",
          "type": "uint256"
        },
        {
          "name": "quantity",
          "type": "uint256"
        },
        {
          "name": "owner",
          "type": "address"
        },
        {
          "name": "purchased",
          "type": "bool"
        }
      ],
      "payable": false,
      "stateMutability": "view",
      "type": "function",
      "signature": "0xfc640949"
    },
    {
      "constant": false,
      "inputs": [
        {
          "name": "name",
          "type": "string"
        },
        {
          "name": "price",
          "type": "uint256"
        },
        {
          "name": "quantity",
          "type": "uint256"
        }
      ],
      "name": "addProduct",
      "outputs": [],
      "payable": false,
      "stateMutability": "nonpayable",
      "type": "function",
      "signature": "0x125b0b34"
    },
    {
      "constant": true,
      "inputs": [
        {
          "name": "productOwner",
          "type": "address"
        },
        {
          "name": "arrayPosition",
          "type": "uint256"
        }
      ],
      "name": "getProductByOwner",
      "outputs": [
        {
          "components": [
            {
              "name": "name",
              "type": "string"
            },
            {
              "name": "price",
              "type": "uint256"
            },
            {
              "name": "quantity",
              "type": "uint256"
            },
            {
              "name": "owner",
              "type": "address"
            },
            {
              "name": "purchased",
              "type": "bool"
            }
          ],
          "name": "",
          "type": "tuple"
        }
      ],
      "payable": false,
      "stateMutability": "view",
      "type": "function",
      "signature": "0x40faa28a"
    }
  ],
  "bytecode": "0x608060405234801561001057600080fd5b50610cec806100206000396000f3fe608060405260043610610062576000357c0100000000000000000000000000000000000000000000000000000000900463ffffffff168063125b0b341461006757806340faa28a14610090578063cfaaef56146100cd578063fc6409491461010e575b600080fd5b34801561007357600080fd5b5061008e600480360361008991908101906109b2565b61014f565b005b34801561009c57600080fd5b506100b760048036036100b29190810190610976565b61037d565b6040516100c49190610b75565b60405180910390f35b3480156100d957600080fd5b506100f460048036036100ef9190810190610a19565b610519565b604051610105959493929190610b1b565b60405180910390f35b34801561011a57600080fd5b5061013560048036036101309190810190610976565b610623565b604051610146959493929190610b1b565b60405180910390f35b600033905061015c61080b565b60a0604051908101604052808681526020018581526020018481526020018373ffffffffffffffffffffffffffffffffffffffff1681526020016000151581525090506101a88161073a565b6001819080600181540180825580915050906001820390600052602060002090600402016000909192909190915060008201518160000190805190602001906101f2929190610853565b50602082015181600101556040820151816002015560608201518160030160006101000a81548173ffffffffffffffffffffffffffffffffffffffff021916908373ffffffffffffffffffffffffffffffffffffffff16021790555060808201518160030160146101000a81548160ff0219169083151502179055505050506000808373ffffffffffffffffffffffffffffffffffffffff1673ffffffffffffffffffffffffffffffffffffffff168152602001908152602001600020819080600181540180825580915050906001820390600052602060002090600402016000909192909190915060008201518160000190805190602001906102f7929190610853565b50602082015181600101556040820151816002015560608201518160030160006101000a81548173ffffffffffffffffffffffffffffffffffffffff021916908373ffffffffffffffffffffffffffffffffffffffff16021790555060808201518160030160146101000a81548160ff0219169083151502179055505050505050505050565b61038561080b565b6000808473ffffffffffffffffffffffffffffffffffffffff1673ffffffffffffffffffffffffffffffffffffffff168152602001908152602001600020828154811015156103d057fe5b906000526020600020906004020160a06040519081016040529081600082018054600181600116156101000203166002900480601f0160208091040260200160405190810160405280929190818152602001828054600181600116156101000203166002900480156104835780601f1061045857610100808354040283529160200191610483565b820191906000526020600020905b81548152906001019060200180831161046657829003601f168201915b5050505050815260200160018201548152602001600282015481526020016003820160009054906101000a900473ffffffffffffffffffffffffffffffffffffffff1673ffffffffffffffffffffffffffffffffffffffff1673ffffffffffffffffffffffffffffffffffffffff1681526020016003820160149054906101000a900460ff161515151581525050905092915050565b60018181548110151561052857fe5b9060005260206000209060040201600091509050806000018054600181600116156101000203166002900480601f0160208091040260200160405190810160405280929190818152602001828054600181600116156101000203166002900480156105d45780601f106105a9576101008083540402835291602001916105d4565b820191906000526020600020905b8154815290600101906020018083116105b757829003601f168201915b5050505050908060010154908060020154908060030160009054906101000a900473ffffffffffffffffffffffffffffffffffffffff16908060030160149054906101000a900460ff16905085565b60006020528160005260406000208181548110151561063e57fe5b906000526020600020906004020160009150915050806000018054600181600116156101000203166002900480601f0160208091040260200160405190810160405280929190818152602001828054600181600116156101000203166002900480156106eb5780601f106106c0576101008083540402835291602001916106eb565b820191906000526020600020905b8154815290600101906020018083116106ce57829003601f168201915b5050505050908060010154908060020154908060030160009054906101000a900473ffffffffffffffffffffffffffffffffffffffff16908060030160149054906101000a900460ff16905085565b600081600001515111151561074e57600080fd5b600073ffffffffffffffffffffffffffffffffffffffff16816060015173ffffffffffffffffffffffffffffffffffffffff16141580156107c05750600073ffffffffffffffffffffffffffffffffffffffff16816060015173ffffffffffffffffffffffffffffffffffffffff1614155b15156107cb57600080fd5b600081602001511115156107de57600080fd5b600081604001511115156107f157600080fd5b600015158160800151151514151561080857600080fd5b50565b60a060405190810160405280606081526020016000815260200160008152602001600073ffffffffffffffffffffffffffffffffffffffff1681526020016000151581525090565b828054600181600116156101000203166002900490600052602060002090601f016020900481019282601f1061089457805160ff19168380011785556108c2565b828001600101855582156108c2579182015b828111156108c15782518255916020019190600101906108a6565b5b5090506108cf91906108d3565b5090565b6108f591905b808211156108f15760008160009055506001016108d9565b5090565b90565b60006109048235610c43565b905092915050565b600082601f830112151561091f57600080fd5b813561093261092d82610bc4565b610b97565b9150808252602083016020830185838301111561094e57600080fd5b610959838284610c5f565b50505092915050565b600061096e8235610c55565b905092915050565b6000806040838503121561098957600080fd5b6000610997858286016108f8565b92505060206109a885828601610962565b9150509250929050565b6000806000606084860312156109c757600080fd5b600084013567ffffffffffffffff8111156109e157600080fd5b6109ed8682870161090c565b93505060206109fe86828701610962565b9250506040610a0f86828701610962565b9150509250925092565b600060208284031215610a2b57600080fd5b6000610a3984828501610962565b91505092915050565b610a4b81610bfb565b82525050565b610a5a81610c0d565b82525050565b6000610a6b82610bf0565b808452610a7f816020860160208601610c6e565b610a8881610ca1565b602085010191505092915050565b600060a0830160008301518482036000860152610ab38282610a60565b9150506020830151610ac86020860182610b0c565b506040830151610adb6040860182610b0c565b506060830151610aee6060860182610a42565b506080830151610b016080860182610a51565b508091505092915050565b610b1581610c39565b82525050565b600060a0820190508181036000830152610b358188610a60565b9050610b446020830187610b0c565b610b516040830186610b0c565b610b5e6060830185610a42565b610b6b6080830184610a51565b9695505050505050565b60006020820190508181036000830152610b8f8184610a96565b905092915050565b6000604051905081810181811067ffffffffffffffff82111715610bba57600080fd5b8060405250919050565b600067ffffffffffffffff821115610bdb57600080fd5b601f19601f8301169050602081019050919050565b600081519050919050565b6000610c0682610c19565b9050919050565b60008115159050919050565b600073ffffffffffffffffffffffffffffffffffffffff82169050919050565b6000819050919050565b6000610c4e82610c19565b9050919050565b6000819050919050565b82818337600083830152505050565b60005b83811015610c8c578082015181840152602081019050610c71565b83811115610c9b576000848401525b50505050565b6000601f19601f830116905091905056fea265627a7a7230582023df3c1e949b7c6bf7eb7ec0744c62ca7866a62b96bfa54a6b40c5f59fecf8236c6578706572696d656e74616cf50037",
  "source": "pragma solidity >=0.4.17 <0.9.0;\npragma experimental ABIEncoderV2;\n\ncontract Storage {\n    struct Product {\n        string name;\n        uint price;\n        uint quantity;\n        address owner;\n        bool purchased;\n    }\n    mapping(address => Product[]) public products;\n    Product[] public allProducts;\n\n    function addProduct(string memory name, uint price, uint quantity) public {\n        address owner = msg.sender;\n        Product memory productToAdd = Product(name, price, quantity, owner, false);\n        validateProduct(productToAdd);\n        allProducts.push(productToAdd);\n        products[owner].push(productToAdd);\n    }\n\n    function getProductByOwner(address productOwner, uint arrayPosition) public view returns(Product memory){\n        return products[productOwner][arrayPosition];\n    }\n    function validateProduct (Product memory product) private pure{\n        require(bytes(product.name).length > 0);\n        require(product.owner != address(0x0) && product.owner != address(0));\n        require(product.price > 0);\n        require(product.quantity > 0);\n        require(product.purchased == false);\n    }\n\n}",
  "sourcePath": "/Users/chasestruse/Documents/Developer/Blockchain/VideoGameMarketplace/contracts/Storage.sol",
  "compiler": {
    "name": "solc",
    "version": "0.5.0+commit.1d4f565a.Emscripten.clang"
  },
  "schemaVersion": "3.0.2",
  "updatedAt": "2022-01-08T19:56:52.211Z",
  "devdoc": {
    "methods": {}
  },
  "userdoc": {
    "methods": {}
  }
}