{
  "contractName": "Storage",
  "abi": [
    {
      "constant": true,
      "inputs": [
        {
          "name": "",
          "type": "uint256"
        }
      ],
      "name": "products",
      "outputs": [
        {
          "name": "id",
          "type": "uint256"
        },
        {
          "name": "name",
          "type": "string"
        },
        {
          "name": "price",
          "type": "uint256"
        },
        {
          "name": "owner",
          "type": "address"
        },
        {
          "name": "purchased",
          "type": "bool"
        }
      ],
      "payable": false,
      "stateMutability": "view",
      "type": "function",
      "signature": "0x7acc0b20"
    },
    {
      "constant": false,
      "inputs": [
        {
          "name": "name",
          "type": "string"
        },
        {
          "name": "price",
          "type": "uint256"
        }
      ],
      "name": "addProduct",
      "outputs": [],
      "payable": false,
      "stateMutability": "nonpayable",
      "type": "function",
      "signature": "0xb15247d9"
    }
  ],
  "bytecode": "0x608060405234801561001057600080fd5b50610627806100206000396000f3fe60806040526004361061004c576000357c0100000000000000000000000000000000000000000000000000000000900463ffffffff1680637acc0b2014610051578063b15247d914610151575b600080fd5b34801561005d57600080fd5b5061008a6004803603602081101561007457600080fd5b8101908080359060200190929190505050610223565b60405180868152602001806020018581526020018473ffffffffffffffffffffffffffffffffffffffff1673ffffffffffffffffffffffffffffffffffffffff16815260200183151515158152602001828103825286818151815260200191508051906020019080838360005b838110156101125780820151818401526020810190506100f7565b50505050905090810190601f16801561013f5780820380516001836020036101000a031916815260200191505b50965050505050505060405180910390f35b34801561015d57600080fd5b506102216004803603604081101561017457600080fd5b810190808035906020019064010000000081111561019157600080fd5b8201836020820111156101a357600080fd5b803590602001918460018302840111640100000000831117156101c557600080fd5b91908080601f016020809104026020016040519081016040528093929190818152602001838380828437600081840152601f19601f8201169050808301925050505050505091929192908035906020019092919050505061031e565b005b6000602052806000526040600020600091509050806000015490806001018054600181600116156101000203166002900480601f0160208091040260200160405190810160405280929190818152602001828054600181600116156101000203166002900480156102d55780601f106102aa576101008083540402835291602001916102d5565b820191906000526020600020905b8154815290600101906020018083116102b857829003601f168201915b5050505050908060020154908060030160009054906101000a900473ffffffffffffffffffffffffffffffffffffffff16908060030160149054906101000a900460ff16905085565b61032661050e565b60a060405190810160405280600180540181526020018481526020018381526020013373ffffffffffffffffffffffffffffffffffffffff1681526020016000151581525090506103768161043d565b6001600081548092919060010191905055508060008060015481526020019081526020016000206000820151816000015560208201518160010190805190602001906103c3929190610556565b506040820151816002015560608201518160030160006101000a81548173ffffffffffffffffffffffffffffffffffffffff021916908373ffffffffffffffffffffffffffffffffffffffff16021790555060808201518160030160146101000a81548160ff021916908315150217905550905050505050565b6000816000015111151561045057600080fd5b600081602001515111151561046457600080fd5b600073ffffffffffffffffffffffffffffffffffffffff16816060015173ffffffffffffffffffffffffffffffffffffffff16141580156104d65750600073ffffffffffffffffffffffffffffffffffffffff16816060015173ffffffffffffffffffffffffffffffffffffffff1614155b15156104e157600080fd5b600081604001511115156104f457600080fd5b600015158160800151151514151561050b57600080fd5b50565b60a060405190810160405280600081526020016060815260200160008152602001600073ffffffffffffffffffffffffffffffffffffffff1681526020016000151581525090565b828054600181600116156101000203166002900490600052602060002090601f016020900481019282601f1061059757805160ff19168380011785556105c5565b828001600101855582156105c5579182015b828111156105c45782518255916020019190600101906105a9565b5b5090506105d291906105d6565b5090565b6105f891905b808211156105f45760008160009055506001016105dc565b5090565b9056fea165627a7a72305820b7ec337cff0cadff555fe2914f9db4224331fb4a33972c77a928e465fc3ce6120029",
  "source": "pragma solidity >=0.4.17 <0.9.0;\n\ncontract Storage {\n    struct Product {\n        uint id;\n        string name;\n        uint price;\n        address owner;\n        bool purchased;\n    }\n    mapping(uint => Product) public products;\n    uint productCount;\n\n    function addProduct(string memory name, uint price) public {\n        Product memory productToAdd = Product(productCount + 1, name, price, msg.sender, false);\n        validateProduct(productToAdd);\n        productCount++;\n        products[productCount] = productToAdd;\n    }\n\n    function validateProduct (Product memory product) private pure{\n        require(product.id > 0);\n        require(bytes(product.name).length > 0);\n        require(product.owner != address(0x0) && product.owner != address(0));\n        require(product.price > 0);\n        require(product.purchased == false);\n    }\n\n}",
  "sourcePath": "/Users/chasestruse/Documents/Developer/Blockchain/VideoGameMarketplace/contracts/Storage.sol",
  "compiler": {
    "name": "solc",
    "version": "0.5.0+commit.1d4f565a.Emscripten.clang"
  },
  "schemaVersion": "3.0.2",
  "updatedAt": "2022-01-06T21:00:12.740Z",
  "devdoc": {
    "methods": {}
  },
  "userdoc": {
    "methods": {}
  }
}