{
  "contractName": "User",
  "abi": [
    {
      "inputs": [
        {
          "name": "addr",
          "type": "address"
        }
      ],
      "payable": false,
      "stateMutability": "nonpayable",
      "type": "constructor",
      "signature": "constructor"
    },
    {
      "constant": false,
      "inputs": [
        {
          "name": "productOwner",
          "type": "address"
        },
        {
          "name": "arrayPosition",
          "type": "uint256"
        }
      ],
      "name": "PurchaseProduct",
      "outputs": [],
      "payable": true,
      "stateMutability": "payable",
      "type": "function",
      "signature": "0x1f76a8d8"
    }
  ],
  "bytecode": "0x608060405234801561001057600080fd5b50604051602080610649833981018060405261002f9190810190610089565b806000806101000a81548173ffffffffffffffffffffffffffffffffffffffff021916908373ffffffffffffffffffffffffffffffffffffffff160217905550506100e4565b600061008182516100d2565b905092915050565b60006020828403121561009b57600080fd5b60006100a984828501610075565b91505092915050565b600073ffffffffffffffffffffffffffffffffffffffff82169050919050565b60006100dd826100b2565b9050919050565b610556806100f36000396000f3fe608060405260043610610041576000357c0100000000000000000000000000000000000000000000000000000000900463ffffffff1680631f76a8d814610046575b600080fd5b610060600480360361005b91908101906102d6565b610062565b005b60008060009054906101000a900473ffffffffffffffffffffffffffffffffffffffff1690506000808273ffffffffffffffffffffffffffffffffffffffff166346d6eb0486866040518363ffffffff167c01000000000000000000000000000000000000000000000000000000000281526004016100e2929190610400565b604080518083038186803b1580156100f957600080fd5b505afa15801561010d573d6000803e3d6000fd5b505050506040513d601f19601f820116820180604052506101319190810190610312565b809250819350505034821115151561017e576040517f08c379a000000000000000000000000000000000000000000000000000000000815260040161017590610480565b60405180910390fd5b6000811115156101c3576040517f08c379a00000000000000000000000000000000000000000000000000000000081526004016101ba90610460565b60405180910390fd5b8273ffffffffffffffffffffffffffffffffffffffff16634d3516f38686336040518463ffffffff167c010000000000000000000000000000000000000000000000000000000002815260040161021c93929190610429565b60006040518083038186803b15801561023457600080fd5b505afa158015610248573d6000803e3d6000fd5b505050508473ffffffffffffffffffffffffffffffffffffffff166108fc349081150290604051600060405180830381858888f19350505050158015610292573d6000803e3d6000fd5b505050505050565b60006102a682356104ca565b905092915050565b60006102ba82356104dc565b905092915050565b60006102ce82516104dc565b905092915050565b600080604083850312156102e957600080fd5b60006102f78582860161029a565b9250506020610308858286016102ae565b9150509250929050565b6000806040838503121561032557600080fd5b6000610333858286016102c2565b9250506020610344858286016102c2565b9150509250929050565b610357816104e6565b82525050565b6000601e82527f5175616e74697479206973206e6f742067726561746572207468616e203000006020830152604082019050919050565b6000602f82527f5072696365206973206e6f742067726561746572207468616e206f722065717560208301527f616c20746f206d73672e76616c756500000000000000000000000000000000006040830152606082019050919050565b6103fa816104c0565b82525050565b6000604082019050610415600083018561034e565b61042260208301846103f1565b9392505050565b600060608201905061043e600083018661034e565b61044b60208301856103f1565b610458604083018461034e565b949350505050565b600060208201905081810360008301526104798161035d565b9050919050565b6000602082019050818103600083015261049981610394565b9050919050565b600073ffffffffffffffffffffffffffffffffffffffff82169050919050565b6000819050919050565b60006104d5826104a0565b9050919050565b6000819050919050565b60006104f1826104f8565b9050919050565b60006105038261050a565b9050919050565b6000610515826104a0565b905091905056fea265627a7a72305820ce89ffd0caa1c6868afeafaf5c132fa25f09ce775680f7a617e47ab90ca318966c6578706572696d656e74616cf50037",
  "source": "pragma solidity >=0.4.17 <0.9.0;\npragma experimental ABIEncoderV2;\n\nimport \"./Storage.sol\";\n\ncontract User {\n\n    address storageAddress;\n\n    constructor(address addr) public {\n        storageAddress = addr;\n    }\n\n    function PurchaseProduct(address payable productOwner, uint arrayPosition) public payable {\n        Storage storageInstance = Storage(storageAddress);\n        uint price; uint quantity;\n        (price, quantity) = storageInstance.getProductPriceAndQuantityByOwner(productOwner, arrayPosition);\n        \n        require(price <= msg.value, \"Price is not greater than or equal to msg.value\");\n        require(quantity > 0, \"Quantity is not greater than 0\");\n\n        storageInstance.transferProductOwnership(productOwner, arrayPosition, msg.sender);\n        productOwner.transfer(msg.value);\n    }\n    \n}",
  "sourcePath": "/Users/chasestruse/Documents/Developer/Blockchain/VideoGameMarketplace/contracts/User.sol",
  "compiler": {
    "name": "solc",
    "version": "0.5.0+commit.1d4f565a.Emscripten.clang"
  },
  "schemaVersion": "3.0.2",
  "updatedAt": "2022-01-11T20:25:53.388Z",
  "devdoc": {
    "methods": {}
  },
  "userdoc": {
    "methods": {}
  }
}