{
  "contractName": "User",
  "abi": [
    {
      "inputs": [
        {
          "name": "addr",
          "type": "address"
        }
      ],
      "payable": false,
      "stateMutability": "nonpayable",
      "type": "constructor",
      "signature": "constructor"
    },
    {
      "constant": false,
      "inputs": [
        {
          "name": "productOwner",
          "type": "address"
        },
        {
          "name": "arrayPosition",
          "type": "uint256"
        }
      ],
      "name": "PurchaseProduct",
      "outputs": [],
      "payable": true,
      "stateMutability": "payable",
      "type": "function",
      "signature": "0x1f76a8d8"
    }
  ],
  "bytecode": "0x608060405234801561001057600080fd5b50604051602080610509833981018060405261002f9190810190610089565b806000806101000a81548173ffffffffffffffffffffffffffffffffffffffff021916908373ffffffffffffffffffffffffffffffffffffffff160217905550506100e4565b600061008182516100d2565b905092915050565b60006020828403121561009b57600080fd5b60006100a984828501610075565b91505092915050565b600073ffffffffffffffffffffffffffffffffffffffff82169050919050565b60006100dd826100b2565b9050919050565b610416806100f36000396000f3fe608060405260043610610041576000357c0100000000000000000000000000000000000000000000000000000000900463ffffffff1680631f76a8d814610046575b600080fd5b610060600480360361005b919081019061026a565b610062565b005b60008060009054906101000a900473ffffffffffffffffffffffffffffffffffffffff1690506000808273ffffffffffffffffffffffffffffffffffffffff166346d6eb0486866040518363ffffffff167c01000000000000000000000000000000000000000000000000000000000281526004016100e2929190610300565b604080518083038186803b1580156100f957600080fd5b505afa15801561010d573d6000803e3d6000fd5b505050506040513d601f19601f8201168201806040525061013191908101906102a6565b809250819350505034821115151561014857600080fd5b60008111151561015757600080fd5b8273ffffffffffffffffffffffffffffffffffffffff16634d3516f38686336040518463ffffffff167c01000000000000000000000000000000000000000000000000000000000281526004016101b093929190610329565b60006040518083038186803b1580156101c857600080fd5b505afa1580156101dc573d6000803e3d6000fd5b505050508473ffffffffffffffffffffffffffffffffffffffff166108fc349081150290604051600060405180830381858888f19350505050158015610226573d6000803e3d6000fd5b505050505050565b600061023a823561038a565b905092915050565b600061024e823561039c565b905092915050565b6000610262825161039c565b905092915050565b6000806040838503121561027d57600080fd5b600061028b8582860161022e565b925050602061029c85828601610242565b9150509250929050565b600080604083850312156102b957600080fd5b60006102c785828601610256565b92505060206102d885828601610256565b9150509250929050565b6102eb816103a6565b82525050565b6102fa81610380565b82525050565b600060408201905061031560008301856102e2565b61032260208301846102f1565b9392505050565b600060608201905061033e60008301866102e2565b61034b60208301856102f1565b61035860408301846102e2565b949350505050565b600073ffffffffffffffffffffffffffffffffffffffff82169050919050565b6000819050919050565b600061039582610360565b9050919050565b6000819050919050565b60006103b1826103b8565b9050919050565b60006103c3826103ca565b9050919050565b60006103d582610360565b905091905056fea265627a7a7230582023df8a4fef96220ab2629084d2d7b96d732e99efe84c0794a69b14d5b46c4c9b6c6578706572696d656e74616cf50037",
  "source": "pragma solidity >=0.4.17 <0.9.0;\npragma experimental ABIEncoderV2;\n\nimport \"./Storage.sol\";\n\ncontract User {\n\n    address storageAddress;\n\n    constructor(address addr) public {\n        storageAddress = addr;\n    }\n\n    function PurchaseProduct(address payable productOwner, uint arrayPosition) public payable {\n        Storage storageInstance = Storage(storageAddress);\n        uint price; uint quantity;\n        (price, quantity) = storageInstance.getProductPriceAndQuantityByOwner(productOwner, arrayPosition);\n\n        require(price <= msg.value);\n        require(quantity > 0);\n\n        storageInstance.transferProductOwnership(productOwner, arrayPosition, msg.sender);\n        productOwner.transfer(msg.value);\n    }\n    \n}",
  "sourcePath": "/Users/chasestruse/Documents/Developer/Blockchain/VideoGameMarketplace/contracts/User.sol",
  "compiler": {
    "name": "solc",
    "version": "0.5.0+commit.1d4f565a.Emscripten.clang"
  },
  "schemaVersion": "3.0.2",
  "updatedAt": "2022-01-10T16:52:13.763Z",
  "devdoc": {
    "methods": {}
  },
  "userdoc": {
    "methods": {}
  }
}